:100000000C942A000C9447000C9447000C94470071
:100010000C9447000C9447000C9447000C94470044
:100020000C9447000C9447000C9447000C94470034
:100030000C945F000C9447000C9447000C9447000C
:100040000C9447000C9447000C9447000C94470014
:100050000C94470011241FBECFE5D8E0DEBFCDBF12
:1000600010E0A0E6B0E0E0E2F5E002C005900D92FD
:10007000AC38B107D9F720E0ACE8B0E001C01D9280
:10008000AD38B207E1F70E9449000C948E020C943F
:1000900000000E94D40061E080E00E945D0280E6E2
:1000A00090E00E9458012FEF83ED90E321508040B3
:1000B0009040E1F700C000000E941301F0CF1F92B2
:1000C0000F920FB60F9211242F933F934F935F938C
:1000D0006F937F938F939F93AF93BF93EF93FF9310
:1000E0000E948A0280938C000E94130182E790E0B4
:1000F0000E94580160E081E00E94670180918C00BD
:100100000E941701FF91EF91BF91AF919F918F9145
:100110007F916F915F914F913F912F910F900FBE03
:100120000F901F901895CF93C82F40E064E082E0B5
:100130000E94EC0140E062E082E00E94EC0140E0BD
:1001400063E082E00E94EC018C2F807F8BBB41E05A
:1001500063E082E00E94EC018FE99FE00197F1F7F4
:1001600000C0000040E063E082E00E94EC0120E17A
:10017000C29FC00111248BBB41E063E082E00E947A
:10018000EC018FE99FE00197F1F700C0000040E02B
:1001900063E082E00E94EC018FE99FE00197F1F7B4
:1001A00000C00000CF91089541E064E080E00E942B
:1001B0007B0141E065E080E00E947B0141E066E078
:1001C00080E00E947B0141E067E080E00E947B01CB
:1001D00041E064E082E00E947B0141E062E082E075
:1001E0000E947B0141E063E082E00E947B0183E3A7
:1001F0000E94930082E30E94930088E20E94930091
:1002000081E00E94930082E00E94930086E00E94B9
:1002100093008CE00E9493008FE39FE10197F1F738
:1002200000C00000089581E00E9493000895CF93DC
:10023000C82F41E064E082E00E94EC0140E063E00E
:1002400082E00E94EC0140E062E082E00E94EC016A
:100250008C2F807F8BBB41E063E082E00E94EC0149
:100260008FE99FE00197F1F700C0000040E063E0F4
:1002700082E00E94EC0120E1C29FC00111248BBBEF
:1002800041E063E082E00E94EC018FE99FE001978A
:10029000F1F700C0000040E063E082E00E94EC0162
:1002A0008FE891E00197F1F700C00000CF91089529
:1002B000CF93DF93EC018881882331F021960E944F
:1002C000170189918111FBCFDF91CF910895882388
:1002D00019F0813031F00AC080E8860F0E94930047
:1002E000089580EC860F0E94930008958BE790E0BC
:1002F0000E9458010895442319F04130C9F108952E
:10030000813091F028F08230D9F0833029F10895BE
:100310002AB381E090E002C0880F991F6A95E2F746
:10032000809582238ABB089527B381E090E002C0C4
:10033000880F991F6A95E2F78095822387BB0895FD
:1003400024B381E090E002C0880F991F6A95E2F71C
:100350008095822384BB089521B381E090E002C0A0
:10036000880F991F6A95E2F78095822381BB0895D3
:10037000813089F028F08230C9F0833011F108957E
:100380002AB381E090E002C0880F991F6A95E2F7D6
:10039000822B8ABB089527B381E090E002C0880FCA
:1003A000991F6A95E2F7822B87BB089524B381E0F9
:1003B00090E002C0880F991F6A95E2F7822B84BBF8
:1003C000089521B381E090E002C0880F991F6A95DB
:1003D000E2F7822B81BB0895442319F04130C9F123
:1003E0000895813091F028F08230D9F0833029F1DE
:1003F00008952BB381E090E002C0880F991F6A95A1
:10040000E2F7809582238BBB089528B381E090E0CA
:1004100002C0880F991F6A95E2F78095822388BBF6
:10042000089525B381E090E002C0880F991F6A9576
:10043000E2F78095822385BB089522B381E090E0A6
:1004400002C0880F991F6A95E2F78095822382BBCC
:100450000895813089F028F08230C9F0833011F19D
:1004600008952BB381E090E002C0880F991F6A9530
:10047000E2F7822B8BBB089528B381E090E002C0A5
:10048000880F991F6A95E2F7822B88BB089525B3E0
:1004900081E090E002C0880F991F6A95E2F7822BF5
:1004A00085BB089522B381E090E002C0880F991FB8
:1004B0006A95E2F7822B82BB0895CF93DF93C82F12
:1004C000D62F40E064E081E00E947B0140E065E0DF
:1004D00081E00E947B0141E066E081E00E947B01B7
:1004E00040E067E081E00E947B016C986E9ACC232B
:1004F00019F0C13019F003C06D9801C06D9ADD2369
:1005000029F0D13021F46F9A789401C06F98DF916F
:10051000CF910895779BFECF8FB10895F894FFCFC8
:1005200044657669636520506173736976652E2E24
:100530002E00536C76205258203A00496E76616C3A
:0C054000696420456E7472792E2E2E0026
:00000001FF
