:100000000C9432000C9447000C9447000C94470069
:100010000C9447000C9447000C9447000C94470044
:100020000C9447000C9447000C9447000C94470034
:100030000C9476000C9447000C9447000C944700F5
:100040000C9447000C9447000C9447000C94470014
:100050000C944700C202C602CA02CE02D202D602E5
:10006000DA02DE0211241FBECFE5D8E0DEBFCDBF2D
:1000700010E0A0E6B0E0E2E2F6E002C005900D92EA
:10008000AE38B107D9F70E9449000C940F030C94C5
:10009000000021E043E060E080E00E9470020E94E6
:1000A000E7000E94260181E690E00E946B012FEF9D
:1000B00089E698E1215080409040E1F700C00000BF
:1000C00060E080E00E94EE02809160000E940303E5
:1000D0002FEF89E698E1215080409040E1F700C081
:1000E000000061E080E00E94EE02DBCF1F920F92E1
:1000F0000FB60F9211242F933F934F935F936F93FB
:100100007F938F939F93AF93BF93EF93FF930E943F
:10011000260181E790E00E946B0160E081E00E948F
:100120007A01809160000E942A01FF91EF91BF91B6
:10013000AF919F918F917F916F915F914F913F917F
:100140002F910F900FBE0F901F901895CF93C82F2F
:1001500040E064E082E00E94FF0140E062E082E073
:100160000E94FF0140E063E082E00E94FF018C2FCB
:10017000807F8BBB41E063E082E00E94FF018FE95A
:100180009FE00197F1F700C0000040E063E082E0EB
:100190000E94FF0120E1C29FC00111248BBB41E0FE
:1001A00063E082E00E94FF018FE99FE00197F1F791
:1001B00000C0000040E063E082E00E94FF018FE9A0
:1001C0009FE00197F1F700C00000CF91089541E052
:1001D00064E080E00E948E0141E065E080E00E94E2
:1001E0008E0141E066E080E00E948E0141E067E020
:1001F00080E00E948E0141E064E082E00E948E0176
:1002000041E062E082E00E948E0141E063E082E032
:100210000E948E0183E30E94A60082E30E94A60052
:1002200088E20E94A60081E00E94A60082E00E946F
:10023000A60086E00E94A6008CE00E94A6008FE344
:100240009FE10197F1F700C00000089581E00E944E
:10025000A6000895CF93C82F41E064E082E00E9499
:10026000FF0140E063E082E00E94FF0140E062E0C5
:1002700082E00E94FF018C2F807F8BBB41E063E016
:1002800082E00E94FF018FE99FE00197F1F700C033
:10029000000040E063E082E00E94FF0120E1C29F95
:1002A000C00111248BBB41E063E082E00E94FF01AA
:1002B0008FE99FE00197F1F700C0000040E063E0A4
:1002C00082E00E94FF018FE891E00197F1F700C002
:1002D0000000CF910895CF93DF93EC0188818823AC
:1002E00031F021960E942A0189918111FBCFDF9183
:1002F000CF910895882319F0813031F00AC080E849
:10030000860F0E94A600089580EC860F0E94A6002A
:1003100008958DE790E00E946B010895442319F041
:100320004130C9F10895813091F028F08230D9F040
:10033000833029F108952AB381E090E002C0880F4C
:10034000991F6A95E2F7809582238ABB089527B3A7
:1003500081E090E002C0880F991F6A95E2F78095CE
:10036000822387BB089524B381E090E002C0880F08
:10037000991F6A95E2F78095822384BB089521B383
:1003800081E090E002C0880F991F6A95E2F780959E
:10039000822381BB0895813089F028F08230C9F032
:1003A000833011F108952AB381E090E002C0880FF4
:1003B000991F6A95E2F7822B8ABB089527B381E0E3
:1003C00090E002C0880F991F6A95E2F7822B87BBE5
:1003D000089524B381E090E002C0880F991F6A95C8
:1003E000E2F7822B84BB089521B381E090E002C044
:1003F000880F991F6A95E2F7822B81BB08954423E9
:1004000019F04130C9F10895813091F028F082301F
:10041000D9F0833029F108952BB381E090E002C038
:10042000880F991F6A95E2F7809582238BBB089508
:1004300028B381E090E002C0880F991F6A95E2F727
:100440008095822388BB089525B381E090E002C0A7
:10045000880F991F6A95E2F78095822385BB0895DE
:1004600022B381E090E002C0880F991F6A95E2F7FD
:100470008095822382BB0895813089F028F08230F4
:10048000C9F0833011F108952BB381E090E002C0F0
:10049000880F991F6A95E2F7822B8BBB089528B3CA
:1004A00081E090E002C0880F991F6A95E2F7822BE5
:1004B00088BB089525B381E090E002C0880F991FA2
:1004C0006A95E2F7822B85BB089522B381E090E024
:1004D00002C0880F991F6A95E2F7822B82BB0895AC
:1004E0000F931F93CF93DF93182FD62FC42F022F74
:1004F00041E064E081E00E948E0141E064E081E03F
:100500000E94FF0141E065E081E00E948E0140E031
:1005100066E081E00E948E0141E067E081E00E9498
:100520008E0141E062E081E00E948E0141E063E0E3
:1005300081E00E948E016C9A6E9A112319F011309D
:1005400019F003C06D9801C06D9AD13049F028F0C0
:10055000D23049F0D33051F00BC06B986A9808C084
:100560006B986A9A05C06B9A6A9802C06B9A6A9AED
:100570004C2F50E04830510520F5FA01E65DFF4F61
:100580000C9409036898699870981BC0689A6998D8
:10059000709817C06898699A709813C0689A699A99
:1005A00070980FC068986998709A0BC0689A69989B
:1005B000709A07C06898699A709A03C0689A699A95
:1005C000709A002329F0013021F46F9A789401C0C9
:1005D0006F98DF91CF911F910F910895662319F0C5
:1005E000613049F0089581110DC040E064E081E080
:1005F0000E94FF010895811105C041E064E081E09F
:100600000E94FF0108958FB9779902C07699FCCFB7
:100610000895EE0FFF1F0590F491E02D0994F894D2
:02062000FFCF0A
:100622004853656C656374696E6720536C762E2E31
:10063200004D6173746572205458203A00496E76F9
:0E064200616C696420456E7472792E2E2E0054
:00000001FF
