:100000000C942A000C94F1000C9404010C94170138
:100010000C9447000C9447000C9447000C94470044
:100020000C9447000C9447000C9447000C94470034
:100030000C9447000C9447000C9447000C94470024
:100040000C9454010C9447000C9447000C94470006
:100050000C94470011241FBECFE5D8E0DEBFCDBF12
:1000600010E0A0E6B0E0E8E8FCE002C005900D92E8
:10007000AC36B107D9F720E0ACE6B0E001C01D9284
:10008000A537B207E1F70E9449000C9442060C9490
:1000900000000E94CC010E94390262E080E00E94D0
:1000A000230362E081E00E94230362E082E00E9479
:1000B000230340E060E080E00E94410241E064E010
:1000C00083E00E94410241E065E083E00E9441023A
:1000D00040E065E083E00E94B20240E064E083E03B
:1000E0000E94B2020EC040E065E083E00E94B202CE
:1000F00040E064E083E00E94B20280916A000E94C6
:10010000070280916F00811162C080916E008111A1
:100110005EC0E9CF40E065E083E00E94B20240E0CB
:1001200064E083E00E94B2020E9434020E943F0217
:100130004AEF64E670E080E090E00E948D0313C017
:1001400040E064E083E00E94B20241E065E083E0C9
:100150000E94B2020E943F024AEF64E670E080E033
:1001600090E00E948D0381E090E00E942D06909126
:100170006C009817E0F480916F008823C1F08091A3
:100180006E008111DDCF13C040E065E083E00E9486
:10019000B20241E064E083E00E94B2020E943F02AA
:1001A0004AEF64E670E080E090E00E948D0381E019
:1001B00090E00E942D0690916C00891740F4809188
:1001C0006F00882321F080916E008111DDCF809136
:1001D0006F00882309F495CF80916E0081119ACF2A
:1001E00090CF1F920F920FB60F9211248F93809190
:1001F0006A00843218F0855080936A008F910F90C6
:100200000FBE0F901F9018951F920F920FB60F926E
:1002100011248F9380916A008B3418F48B5F809344
:100220006A008F910F900FBE0F901F9018951F922C
:100230000F920FB60F9211242F933F934F935F931A
:100240006F937F938F939F93AF93BF93EF93FF939E
:1002500090916F0081E0982790936F0020916E003D
:10026000822780936E00992371F0882361F060915A
:100270006A0081E090E00E9435068FE39CE90197D7
:10028000F1F700C00000FF91EF91BF91AF919F91F6
:100290008F917F916F915F914F913F912F910F902F
:1002A0000FBE0F901F9018951F920F920FB60F92CE
:1002B0001124FF920F931F932F933F934F935F93BC
:1002C0006F937F938F939F93AF93BF93CF93DF935E
:1002D000EF93FF93F0906D00CF2DD0E064B175B136
:1002E0008E01005A1F4F80E090E00E94CE042FE75D
:1002F0003BEF4AEF5EE30E945C0529E93BEB46E9F0
:100300005EE30E9432040E949F04F8016083F9E0DA
:10031000FF1224C0E0E6F0E08081218130E0280F68
:10032000311D8381280F311D8481280F311D858166
:10033000280F311D8681280F311D8781280F311D1F
:100340008085280F311D8185A901480F511DCA01E3
:100350006AE070E00E94C90560936C00CE010196CE
:100360006AE070E00E94C90580936D00FF91EF91F3
:10037000DF91CF91BF91AF919F918F917F916F91BD
:100380005F914F913F912F911F910F91FF900F908F
:100390000FBE0F901F9018950E94CD030E94D703A7
:1003A00041E060E082E00E94410241E061E082E0E1
:1003B0000E94410241E062E082E00E94410241E08D
:1003C00063E082E00E94410241E065E082E00E9439
:1003D000410241E066E082E00E944102089541E06E
:1003E00065E082E00E94B202089540E065E082E0AC
:1003F0000E94B202089541E066E082E00E94B202EB
:10040000089540E066E082E00E94B2020895CF9332
:100410009DEC899F912D1124292F269526952695AF
:10042000220F322F330F330F230F821BC92FC69594
:10043000C695C69585BB0E94EF010E9401024AEF56
:1004400062E370E080E090E00E94DE03C5BB0E94A2
:10045000FB010E94F5014AEF62E370E080E090E06A
:100460000E94DE03CF9108950E94F5010E940102CF
:10047000089584E487B98FE886B978940895369A08
:100480000895442319F04130C9F10895813091F065
:1004900028F08230D9F0833029F108952AB381E021
:1004A00090E002C0880F991F6A95E2F78095822339
:1004B0008ABB089527B381E090E002C0880F991F9E
:1004C0006A95E2F78095822387BB089524B381E083
:1004D00090E002C0880F991F6A95E2F78095822309
:1004E00084BB089521B381E090E002C0880F991F7A
:1004F0006A95E2F78095822381BB0895813089F067
:1005000028F08230C9F0833011F108952AB381E0D8
:1005100090E002C0880F991F6A95E2F7822B8ABB90
:10052000089527B381E090E002C0880F991F6A9573
:10053000E2F7822B87BB089524B381E090E002C0EC
:10054000880F991F6A95E2F7822B84BB089521B327
:1005500081E090E002C0880F991F6A95E2F7822B34
:1005600081BB0895442319F04130C9F108958130C9
:1005700091F028F08230D9F0833029F108952BB31F
:1005800081E090E002C0880F991F6A95E2F780959C
:1005900082238BBB089528B381E090E002C0880FCE
:1005A000991F6A95E2F78095822388BB089525B349
:1005B00081E090E002C0880F991F6A95E2F780956C
:1005C000822385BB089522B381E090E002C0880FAA
:1005D000991F6A95E2F78095822382BB0895813046
:1005E00089F028F08230C9F0833011F108952BB3DF
:1005F00081E090E002C0880F991F6A95E2F7822B94
:100600008BBB089528B381E090E002C0880F991F4A
:100610006A95E2F7822B88BB089525B381E090E0CC
:1006200002C0880F991F6A95E2F7822B85BB089557
:1006300022B381E090E002C0880F991F6A95E2F72B
:10064000822B82BB0895F894813069F120F08230CA
:1006500009F451C060C08E988BB780648BBF613045
:1006600069F028F0623089F06330B1F054C085B78A
:100670008D7F85BF85B78E7F85BF4DC085B78D7F48
:1006800085BF85B7816085BF46C085B7826085BF5D
:1006900085B78E7F85BF3FC085B7826085BF85B730
:1006A000816085BF38C08F988BB780688BBF613001
:1006B00069F028F0623089F06330B1F02CC085B762
:1006C000877F85BF85B78B7F85BF25C085B7877F2F
:1006D00085BF85B7846085BF1EC085B7886085BF2C
:1006E00085B78B7F85BF17C085B7886085BF85B705
:1006F000846085BF10C08D988BB780628BBF6230DD
:1007000019F0633029F007C084B78F7B84BF03C022
:1007100084B7806484BF78940895CF92DF92EF927B
:10072000FF92CF93E42FA8EEB3E09B01AC010E94AF
:10073000FF056B017C01689415F8F694E794D79453
:10074000C7941694D1F7ECBF2CB730E040E050E0EE
:10075000C701B6010E94DD05DA01C9010196A11D9C
:10076000B11D8093710090937200A0937300B093B9
:100770007400CCB72CB730E040E050E0C701B601C0
:100780000E94DD058C2F861B8093700082BFCF9165
:10079000FF90EF90DF90CF90089583B7887083BF6C
:1007A00083B7886083BF89B78E7F89BF089583B779
:1007B0008D7F83BF83B7856083BF08958F929F929B
:1007C000AF92BF92CF92DF92EF92FF920F931F935F
:1007D000E42FA8EEB3E09B01AC010E94FF054B01A2
:1007E0005C01689415F8B694A7949794879416942E
:1007F000D1F7ECBF2CB730E040E050E0C501B401C8
:100800000E94DD0569017A011CB72CB730E040E099
:1008100050E0C501B4010E94DD05161B12BF97010F
:1008200086010F5F1F4F2F4F3F4F40E050E0BA014E
:1008300008B601FEFDCF88B7816088BF4F5F5F4F6C
:100840006F4F7F4F041715072607370789F71F914A
:100850000F91FF90EF90DF90CF90BF90AF909F905F
:100860008F9008955058BB27AA270E944A040C94E1
:1008700022050E94140538F00E941B0520F039F46F
:100880009F3F19F426F40C9411050EF4E095E7FB54
:100890000C940B05E92F0E94330558F3BA17620731
:1008A00073078407950720F079F4A6F50C94550595
:1008B0000EF4E0950B2EBA2FA02D0B01B90190017B
:1008C0000C01CA01A0011124FF27591B99F0593FBF
:1008D00050F4503E68F11A16F040A22F232F342F07
:1008E0004427585FF3CF469537952795A795F04055
:1008F0005395C9F77EF41F16BA0B620B730B840B6A
:10090000BAF09150A1F0FF0FBB1F661F771F881F21
:10091000C2F70EC0BA0F621F731F841F48F4879579
:1009200077956795B795F7959E3F08F0B0CF93956B
:10093000880F08F09927EE0F9795879508950E94E4
:100940003B0588F09F5798F0B92F9927B751B0F021
:10095000E1F0660F771F881F991F1AF0BA95C9F743
:1009600014C0B13091F00E945505B1E008950C9487
:100970005505672F782F8827B85F39F0B93FCCF33A
:10098000869577956795B395D9F73EF490958095C0
:10099000709561957F4F8F4F9F4F0895E89409C0E0
:1009A00097FB3EF490958095709561957F4F8F4FA2
:1009B0009F4F9923A9F0F92F96E9BB279395F695B8
:1009C000879577956795B795F111F8CFFAF4BB0F36
:1009D00011F460FF1BC06F5F7F4F8F4F9F4F16C09A
:1009E000882311F096E911C0772321F09EE8872F24
:1009F000762F05C0662371F096E8862F70E060E0E0
:100A00002AF09A95660F771F881FDAF7880F969558
:100A1000879597F9089597F99F6780E870E060E0FF
:100A200008959FEF80EC089500240A941616170687
:100A300018060906089500240A94121613061406CF
:100A400005060895092E0394000C11F4882352F032
:100A5000BB0F40F4BF2B11F460FF04C06F5F7F4FEA
:100A60008F4F9F4F089557FD9058440F551F59F0D1
:100A70005F3F71F04795880F97FB991F61F09F3F8B
:100A800079F087950895121613061406551FF2CFB4
:100A90004695F1DF08C0161617061806991FF1CF04
:100AA00086957105610508940895E894BB2766272B
:100AB0007727CB0197F908950E946F050C942205C2
:100AC0000E94140538F00E941B0520F0952311F0B8
:100AD0000C940B050C94110511240C9456050E94DE
:100AE000330570F3959FC1F3950F50E0551F629F3A
:100AF000F001729FBB27F00DB11D639FAA27F00D77
:100B0000B11DAA1F649F6627B00DA11D661F829F9D
:100B10002227B00DA11D621F739FB00DA11D621F82
:100B2000839FA00D611D221F749F3327A00D611D9F
:100B3000231F849F600D211D822F762F6A2F112481
:100B40009F5750409AF0F1F088234AF0EE0FFF1FB4
:100B5000BB1F661F771F881F91505040A9F79E3F0B
:100B6000510580F00C940B050C9456055F3FE4F39F
:100B7000983ED4F3869577956795B795F795E79561
:100B80009F5FC1F7FE2B880F911D9695879597F96A
:100B9000089597FB072E16F4009407D077FD09D02F
:100BA0000E940A0607FC05D03EF4909581959F4F60
:100BB0000895709561957F4F0895A1E21A2EAA1BA2
:100BC000BB1BFD010DC0AA1FBB1FEE1FFF1FA217FD
:100BD000B307E407F50720F0A21BB30BE40BF50BFA
:100BE000661F771F881F991F1A9469F76095709583
:100BF000809590959B01AC01BD01CF0108950E94A5
:100C00001E06A59F900DB49F900DA49F800D911D71
:100C100011240895AA1BBB1B51E107C0AA1FBB1FCB
:100C2000A617B70710F0A61BB70B881F991F5A9578
:100C3000A9F780959095BC01CD010895A29FB001C0
:100C4000B39FC001A39F700D811D1124911DB29F00
:100C5000700D811D1124911D0895E199FECF9FBB58
:100C60008EBBE09A99278DB30895262FE199FECF88
:100C70009FBB8EBB2DBB0FB6F894E29AE19A0FBED4
:080C800001960895F894FFCFDE
:0C0C88003C3C3C3C3C3C3C3C3C3C3C00CC
:00000001FF
