:100000000C942A000C949B000C94D0000C943F009C
:100010000C943F000C943F000C943F000C943F0064
:100020000C943F000C943F000C943F000C943F0054
:100030000C943F000C943F000C943F000C943F0044
:100040000C943F000C943F000C943F000C943F0034
:100050000C943F0011241FBECFE5D8E0DEBFCDBF1A
:1000600010E0A0E6B0E0E6E1F8E002C005900D92F5
:10007000A239B107D9F70E9441000C9409040C94ED
:1000800000000E94FD010E940D020E941F020E94BA
:1000900056010E9409010E940F0162E080E00E9467
:1000A000B20363E081E00E94B2030E9408020E9452
:1000B00019020E942502C12CD12C760100E010E02B
:1000C000D0E0C0E006C00E942B02C02ED12EED2E43
:1000D000FC2E0E94030280E690E00E94DA012FEFDE
:1000E00083ED90E3215080409040E1F700C0000094
:1000F0000E9408020E9495010E94130288E690E087
:100100000E94DA012FEF83ED90E321508040904070
:10011000E1F700C000000E9419020E9495012FEF34
:10012000C21AD20AE20AF20A83E0C816D104E10434
:10013000F10479F6C8CF1F920F920FB60F921124D7
:100140002F933F934F935F936F937F938F939F93DF
:10015000AF93BF93EF93FF930E94950160E080E01F
:100160000E94E90180E790E00E94DA012FEF87EA20
:1001700091E6215080409040E1F700C00000FF91DF
:10018000EF91BF91AF919F918F917F916F915F910F
:100190004F913F912F910F900FBE0F901F90189588
:1001A0001F920F920FB60F9211242F933F934F93EC
:1001B0005F936F937F938F939F93AF93BF93EF93CF
:1001C000FF930E94950160E080E00E94E90188E7CA
:1001D00090E00E94DA012FEF87EA91E621508040FB
:1001E0009040E1F700C000000E9425020E949501A6
:1001F000FF91EF91BF91AF919F918F917F916F91FF
:100200005F914F913F912F910F900FBE0F901F90D4
:10021000189540E066E083E00E943002089540E0D7
:1002200062E083E00E9430020895CF93C82F40E03F
:1002300061E081E00E94A10240E062E081E00E9472
:10024000A10240E063E081E00E94A1028C2F807F48
:100250008BBB41E063E081E00E94A1028FE99FE057
:100260000197F1F700C0000040E063E081E00E94E8
:10027000A10220E1C29FC00111248BBB41E063E0D9
:1002800081E00E94A1028FE99FE00197F1F700C091
:10029000000040E063E081E00E94A1028FE99FE05E
:1002A0000197F1F700C00000CF91089541E064E0AC
:1002B00080E00E94300241E065E080E00E94300270
:1002C00041E066E080E00E94300241E067E080E0CB
:1002D0000E94300241E061E081E00E94300241E092
:1002E00062E081E00E94300241E063E081E00E9430
:1002F000300283E30E94150182E30E94150188E227
:100300000E94150181E00E94150182E00E94150102
:1003100086E00E9415018CE00E9415018FE39FE1A9
:100320000197F1F700C00000089581E00E941501D7
:100330000895CF93C82F41E061E081E00E94A102BF
:1003400040E063E081E00E94A10240E062E081E0E1
:100350000E94A1028C2F807F8BBB41E063E081E093
:100360000E94A1028FE99FE00197F1F700C0000011
:1003700040E063E081E00E94A10220E1C29FC00151
:1003800011248BBB41E063E081E00E94A1028FE970
:100390009FE00197F1F700C0000040E063E081E0DA
:1003A0000E94A1028FE891E00197F1F700C00000E0
:1003B000CF910895CF93DF93EC018881882331F0AA
:1003C00021960E94990189918111FBCFDF91CF91F4
:1003D0000895882319F0813031F00AC080E8860F33
:1003E0000E941501089580EC860F0E941501089562
:1003F00080E890E00E94DA01089541E062E082E046
:100400000E943002089562E082E00E94460308954F
:1004100062E082E00E947A03089541E067E082E0B2
:100420000E943002089541E067E082E00E94A1024C
:10043000089540E067E082E00E94A102089541E053
:1004400063E083E00E943002089540E063E083E0CF
:100450000E94A102089563E083E00E9412030895C0
:10046000442319F04130C9F10895813091F028F00A
:100470008230D9F0833029F108952AB381E090E0E9
:1004800002C0880F991F6A95E2F7809582238ABB84
:10049000089527B381E090E002C0880F991F6A9504
:1004A000E2F78095822387BB089524B381E090E032
:1004B00002C0880F991F6A95E2F78095822384BB5A
:1004C000089521B381E090E002C0880F991F6A95DA
:1004D000E2F78095822381BB0895813089F028F06E
:1004E0008230C9F0833011F108952AB381E090E0A1
:1004F00002C0880F991F6A95E2F7822B8ABB089584
:1005000027B381E090E002C0880F991F6A95E2F757
:10051000822B87BB089524B381E090E002C0880F4E
:10052000991F6A95E2F7822B84BB089521B381E07D
:1005300090E002C0880F991F6A95E2F7822B81BB79
:100540000895442319F04130C9F10895813091F0A4
:1005500028F08230D9F0833029F108952BB381E05F
:1005600090E002C0880F991F6A95E2F78095822378
:100570008BBB089528B381E090E002C0880F991FDB
:100580006A95E2F78095822388BB089525B381E0C0
:1005900090E002C0880F991F6A95E2F78095822348
:1005A00085BB089522B381E090E002C0880F991FB7
:1005B0006A95E2F78095822382BB0895813089F0A5
:1005C00028F08230C9F0833011F108952BB381E017
:1005D00090E002C0880F991F6A95E2F7822B8BBBCF
:1005E000089528B381E090E002C0880F991F6A95B2
:1005F000E2F7822B88BB089525B381E090E002C02A
:10060000880F991F6A95E2F7822B85BB089522B364
:1006100081E090E002C0880F991F6A95E2F7822B73
:1006200082BB0895813089F028F08230C9F0833090
:1006300011F108952BB381E090E002C0880F991F5B
:100640006A95E2F782278BBB089528B381E090E09A
:1006500002C0880F991F6A95E2F7822788BB089528
:1006600025B381E090E002C0880F991F6A95E2F7F8
:10067000822785BB089522B381E090E002C0880FF5
:10068000991F6A95E2F7822782BB0895813089F02D
:1006900028F08230C9F0833011F108952BB381E046
:1006A00090E002C0880F991F6A95E2F7822B8BBBFE
:1006B000089528B381E090E002C0880F991F6A95E1
:1006C000E2F7822B88BB089525B381E090E002C059
:1006D000880F991F6A95E2F7822B85BB089522B394
:1006E00081E090E002C0880F991F6A95E2F7822BA3
:1006F00082BB0895813091F028F08230D9F08330A8
:1007000029F108952BB381E090E002C0880F991F72
:100710006A95E2F7809582238BBB089528B381E028
:1007200090E002C0880F991F6A95E2F780958223B6
:1007300088BB089525B381E090E002C0880F991F1F
:100740006A95E2F78095822385BB089522B381E004
:1007500090E002C0880F991F6A95E2F78095822386
:1007600082BB0895F894882319F0813049F14FC075
:100770008E988BB780648BBF613069F028F062304F
:1007800089F06330B1F043C085B78D7F85BF85B7F1
:100790008E7F85BF3CC085B78D7F85BF85B7816063
:1007A00085BF35C085B7826085BF85B78E7F85BF21
:1007B0002EC085B7826085BF85B7816085BF27C0A1
:1007C0008F988BB780688BBF613069F028F06230FA
:1007D00089F06330B1F01BC085B7877F85BF85B7CF
:1007E0008B7F85BF14C085B7877F85BF85B7846041
:1007F00085BF0DC085B7886085BF85B78B7F85BFF6
:1008000006C085B7886085BF85B7846085BF78944A
:060810000895F894FFCFEB
:100816004C454430204F4E004C454431204F4E004D
:100826004572726F722031004572726F722032000B
:10083600496E76616C696420456E7472792E2E2E2F
:020846000000B0
:00000001FF
