:100000000C9446000C945B000C945B000C945B0019
:100010000C945B000C945B000C945B000C945B00F4
:100020000C945B000C945B000C945B000C945B00E4
:100030000C945B000C945B000C945B000C945B00D4
:100040000C945B000C945B000C945B000C945B00C4
:100050000C945B00F001F501F901FD0101020502BC
:1000600009020D021102150219021D0221022502C8
:10007000320237023C024002440248024C02500263
:10008000540258025C0260026402680211241FBE1E
:10009000CFE5D8E0DEBFCDBF10E0A0E6B0E0E2E102
:1000A000F6E002C005900D92A037B107D9F70E9483
:1000B0005D000C9407030C940000C12C0F2EF3E09C
:1000C000EF2EF02D00E020E042E060E082E00E94B0
:1000D000DB010E94BA0080E690E00E94F2022FEF5E
:1000E00089E698E1215080409040E1F700C000008F
:1000F000F2CFCF93C82F40E064E082E00E946A0113
:1001000040E062E082E00E946A0140E063E082E059
:100110000E946A018C2F807F8BBB41E063E082E00C
:100120000E946A018FE99FE00197F1F700C000008B
:1001300040E063E082E00E946A0120E1C29FC001CA
:1001400011248BBB41E063E082E00E946A018FE9E9
:100150009FE00197F1F700C0000040E063E082E01B
:100160000E946A018FE99FE00197F1F700C000004B
:10017000CF91089541E064E080E00E94F90041E001
:1001800065E080E00E94F90041E066E080E00E94C6
:10019000F90041E067E080E00E94F90041E064E09E
:1001A00082E00E94F90041E062E082E00E94F900F2
:1001B00041E063E082E00E94F90083E30E9479005D
:1001C00082E30E94790088E20E94790081E00E9427
:1001D000790082E00E94790086E00E9479008CE03C
:1001E0000E9479008FE39FE10197F1F700C00000C2
:1001F0000895442319F04130C9F10895813091F0F8
:1002000028F08230D9F0833029F108952AB381E0B3
:1002100090E002C0880F991F6A95E2F780958223CB
:100220008ABB089527B381E090E002C0880F991F30
:100230006A95E2F78095822387BB089524B381E015
:1002400090E002C0880F991F6A95E2F7809582239B
:1002500084BB089521B381E090E002C0880F991F0C
:100260006A95E2F78095822381BB0895813089F0F9
:1002700028F08230C9F0833011F108952AB381E06B
:1002800090E002C0880F991F6A95E2F7822B8ABB23
:10029000089527B381E090E002C0880F991F6A9506
:1002A000E2F7822B87BB089524B381E090E002C07F
:1002B000880F991F6A95E2F7822B84BB089521B3BA
:1002C00081E090E002C0880F991F6A95E2F7822BC7
:1002D00081BB0895442319F04130C9F1089581305C
:1002E00091F028F08230D9F0833029F108952BB3B2
:1002F00081E090E002C0880F991F6A95E2F780952F
:1003000082238BBB089528B381E090E002C0880F60
:10031000991F6A95E2F78095822388BB089525B3DB
:1003200081E090E002C0880F991F6A95E2F78095FE
:10033000822385BB089522B381E090E002C0880F3C
:10034000991F6A95E2F78095822382BB08958130D8
:1003500089F028F08230C9F0833011F108952BB371
:1003600081E090E002C0880F991F6A95E2F7822B26
:100370008BBB089528B381E090E002C0880F991FDD
:100380006A95E2F7822B88BB089525B381E090E05F
:1003900002C0880F991F6A95E2F7822B85BB0895EA
:1003A00022B381E090E002C0880F991F6A95E2F7BE
:1003B000822B82BB0895CF92EF920F933E2D66233E
:1003C00021F0613009F444C086C0599890E08E3025
:1003D000910508F080C0FC01E65DFF4F0C9401031D
:1003E00081E080BD80EA89B976C010BC8FEC89B904
:1003F00072C010BC87E689B96EC010BC84E489B9AC
:100400006AC010BC83E389B966C010BC82E289B9B6
:1004100062C010BC89E189B95EC010BC80E189B9B5
:100420005AC010BC8CE089B956C010BC88E089B9AC
:1004300052C010BC83E089B94EC010BC83E089B9BA
:100440004AC010BC81E089B946C010BC19B843C08D
:10045000599A90E08E309105F0F5FC01E85CFF4F71
:100460000C94010383E080BD80E489B934C081E04D
:1004700080BD80EA89B92FC010BC8FEC89B92BC030
:1004800010BC8AE889B927C010BC87E689B923C0A7
:1004900010BC84E489B91FC010BC83E389B91BC0B8
:1004A00010BC82E289B917C010BC89E189B913C0B8
:1004B00010BC80E189B90FC010BC88E089B90BC0BD
:1004C00010BC87E089B907C010BC83E089B903C0BC
:1004D00010BC81E089B988E18AB9413059F018F03F
:1004E000423079F014C080B58F7E80BD80B58062C7
:1004F00080BD0DC080B5806180BD80B5806280BD4B
:1005000006C080B58F7E80BD80B58F7D80BD2223E3
:1005100019F0213029F007C080B58F7B80BD03C062
:1005200080B5806480BD002319F0013029F007C038
:1005300080B5877F80BD03C080B5886080BD3230C4
:10054000F9F028F4332341F0313081F036C03330F4
:1005500009F1343049F131C080B58D7F80BD80B55F
:100560008B7F80BD80B58B7F80BD27C080B58260CA
:1005700080BD80B58B7F80BD80B58B7F80BD1DC069
:1005800080B58D7F80BD80B5846080BD80B58B7F58
:1005900080BD13C080B5826080BD80B5846080BDA1
:1005A00080B58B7F80BD09C080B5826080BD80B57D
:1005B000846080BD80B5846080BDCC2021F081E066
:1005C000C81629F007C080B58E7F80BD03C080B5F6
:1005D000816080BD0F91EF90CF9008955D9BFECF1D
:1005E0008CB90895CF93DF93EC018881882331F093
:1005F00021960E94EE0289918111FBCFDF91CF916C
:100600000895EE0FFF1F0590F491E02D0994F894E2
:02061000FFCF1A
:1006120048656C6C6F20576F726C642E2E2E000032
:00000001FF
