:100000000C942A000C943F000C943F000C943F0089
:100010000C943F000C943F000C943F000C943F0064
:100020000C943F000C943F000C943F000C943F0054
:100030000C943F000C943F000C943F000C943F0044
:100040000C943F000C943F000C943F000C943F0034
:100050000C943F0011241FBECFE5D8E0DEBFCDBF1A
:1000600010E0A0E6B0E0EEEDF5E002C005900D92E4
:10007000A639B107D9F70E9441000C94ED020C9407
:1000800000000E94D500CC24C3940F2EF3E0EF2E85
:10009000F02D00E020E042E060E875E280E090E0D2
:1000A0000E944A0200E610E0D02F11278D2F0E94F7
:1000B000DF0260E080E00E94540186E690E00E944A
:1000C000450160E081E00E945401C8010E944501A1
:1000D0002FEF89E698E1215080409040E1F700C081
:1000E00000000E9400010E94E302C82F60E080E04F
:1000F0000E94540186E790E00E94450160E081E0A3
:100100000E9454018C2F90E00E9445012FEF89E658
:1001100098E1215080409040E1F700C000000E942B
:1001200000010E94E702C2CFCF93C82F40E064E0F5
:1001300082E00E94D90140E062E082E00E94D901A1
:1001400040E063E082E00E94D9018C2F807F8BBB6E
:1001500041E063E082E00E94D9018FE99FE00197CE
:10016000F1F700C0000040E063E082E00E94D901A6
:1001700020E1C29FC00111248BBB41E063E082E01B
:100180000E94D9018FE99FE00197F1F700C00000BC
:1001900040E063E082E00E94D9018FE99FE001978F
:1001A000F1F700C00000CF91089541E064E082E0E3
:1001B0000E94680141E062E082E00E94680141E043
:1001C00063E082E00E94680183E30E94940082E37E
:1001D0000E94940088E20E94940081E00E949400B2
:1001E00082E00E94940086E00E9494008CE00E94CD
:1001F00094008FE39FE10197F1F700C0000008959C
:1002000081E00E9494000895CF93C82F41E064E0FC
:1002100082E00E94D90140E063E082E00E94D901BF
:1002200040E062E082E00E94D9018C2F807F8BBB8E
:1002300041E063E082E00E94D9018FE99FE00197ED
:10024000F1F700C0000040E063E082E00E94D901C5
:1002500020E1C29FC00111248BBB41E063E082E03A
:100260000E94D9018FE99FE00197F1F700C00000DB
:1002700040E063E082E00E94D9018FE891E00197BD
:10028000F1F700C00000CF910895CF93DF93EC0108
:100290008881882331F021960E940401899181117F
:1002A000FBCFDF91CF910895882319F0813031F091
:1002B0000AC080E8860F0E949400089580EC860FA3
:1002C0000E949400089584E890E00E9445010895FA
:1002D000442319F04130C9F10895813091F028F09C
:1002E0008230D9F0833029F108952AB381E090E07B
:1002F00002C0880F991F6A95E2F7809582238ABB16
:10030000089527B381E090E002C0880F991F6A9595
:10031000E2F78095822387BB089524B381E090E0C3
:1003200002C0880F991F6A95E2F78095822384BBEB
:10033000089521B381E090E002C0880F991F6A956B
:10034000E2F78095822381BB0895813089F028F0FF
:100350008230C9F0833011F108952AB381E090E032
:1003600002C0880F991F6A95E2F7822B8ABB089515
:1003700027B381E090E002C0880F991F6A95E2F7E9
:10038000822B87BB089524B381E090E002C0880FE0
:10039000991F6A95E2F7822B84BB089521B381E00F
:1003A00090E002C0880F991F6A95E2F7822B81BB0B
:1003B0000895442319F04130C9F10895813091F036
:1003C00028F08230D9F0833029F108952BB381E0F1
:1003D00090E002C0880F991F6A95E2F7809582230A
:1003E0008BBB089528B381E090E002C0880F991F6D
:1003F0006A95E2F78095822388BB089525B381E052
:1004000090E002C0880F991F6A95E2F780958223D9
:1004100085BB089522B381E090E002C0880F991F48
:100420006A95E2F78095822382BB0895813089F036
:1004300028F08230C9F0833011F108952BB381E0A8
:1004400090E002C0880F991F6A95E2F7822B8BBB60
:10045000089528B381E090E002C0880F991F6A9543
:10046000E2F7822B88BB089525B381E090E002C0BB
:10047000880F991F6A95E2F7822B85BB089522B3F6
:1004800081E090E002C0880F991F6A95E2F7822B05
:1004900082BB08954F925F926F927F92CF92EF92BC
:1004A0000F933E2D472E582E692E772440BC69B9F4
:1004B00098E19AB9413059F018F0423079F014C0FF
:1004C00090B59F7E90BD90B5906290BD0DC090B5E7
:1004D000906190BD90B5906290BD06C090B59F7E32
:1004E00090BD90B59F7D90BD222319F0213029F059
:1004F00007C090B59F7B90BD03C090B5906490BD40
:10050000002319F0013029F007C090B5977F90BD06
:1005100003C090B5986090BD3230F9F028F43323D1
:1005200041F0313081F036C0333009F1343049F1D7
:1005300031C080B58D7F80BD80B58B7F80BD80B59B
:100540008B7F80BD27C080B5826080BD80B58B7FEA
:1005500080BD80B58B7F80BD1DC080B58D7F80BD87
:1005600080B5846080BD80B58B7F80BD13C080B5B1
:10057000826080BD80B5846080BD80B58B7F80BD8A
:1005800009C080B5826080BD80B5846080BD80B5C3
:10059000846080BDCC2021F081E0C81629F007C01E
:1005A00080B58E7F80BD03C080B5816080BD0F9116
:1005B000EF90CF907F906F905F904F9008955D9BEC
:1005C000FECF8CB908955F9BFECF8CB108955F9BE1
:0E05D00003C08CB15F99FDCF0895F894FFCF62
:1005DE0048656C6C6F0055415254205452414E5335
:1005EE004D4954203A0055415254205245434956E4
:1005FE0045203A00496E76616C696420456E7472CE
:06060E00792E2E2E0000E3
:00000001FF
