:100000000C942A000C9499010C94AA010C94BB0145
:100010000C9447000C9447000C9447000C94470044
:100020000C9447000C9447000C9447000C94470034
:100030000C9447000C9447000C9447000C94470024
:100040000C9447000C9447000C9447000C94470014
:100050000C94470011241FBECFE5D8E0DEBFCDBF12
:1000600010E0A0E6B0E0E6E1F9E002C005900D92F4
:10007000AE39B107D9F720E0AEE9B0E001C01D927A
:10008000A03AB207E1F70E9449000C9489040C944D
:1000900000000E940A0262E080E00E94DE0362E04B
:1000A00081E00E94DE0363E082E00E94DE0340E024
:1000B00067E082E00E94CE0240E065E082E00E94BC
:1000C000CE0240E066E082E00E94CE02FF24F3947C
:1000D0001F2D80919F00811198C080919E008111F9
:1000E0002BC00E94490280919F008111F2CF809124
:1000F0009E008111EECF62E080E00E94BA0280E6AD
:1001000090E00E948E0260E08F2D0E94BA028CE681
:1001100090E00E948E026BE08F2D0E94BA0282E76F
:1001200090E00E948E0280919F008111D2CF809139
:100130009E00882301F3CDCF813059F60E944902F9
:1001400080919F008111C5CF80919E00813009F080
:10015000C0CF62E080E00E94BA0287E790E00E9490
:100160008E02C0E025C062E080E00E94BA0287E70C
:1001700090E00E948E0260E08F2D0E94BA026C2FE8
:1001800070E080E090E00E949D0266E082E00E94C4
:10019000B003882321F00E944902C15009C067E0E2
:1001A00082E00E94B003882319F00E944902CF5FC9
:1001B00065E082E00E94B0038823A9F2CC2309F411
:1001C00090C00E94490262E080E00E94BA0287E784
:1001D00090E00E948E0260E08F2D0E94BA026C2F88
:1001E00070E080E090E00E949D022FEF83ED90E3AD
:1001F000215080409040E1F700C00000C15009F755
:1002000010929F0010929E0064CF813009F061CF60
:1002100080919E0081115DCF0E94490263E080E0E1
:100220000E94BA0282E890E00E948E0260E08F2D68
:100230000E94BA0260E070E0CB010E949D02C0E023
:1002400000E0D0E043C067E082E00E94B00381118B
:100250000D2F66E082E00E94B003811147C065E087
:1002600082E00E94B003882331F001C0012FD093B7
:100270009F00D0939E00013049F5CF5F6D2F812FF5
:100280000E94BA026C2F70E080E090E00E949D0214
:1002900067E082E00E94B00381113AC065E082E02D
:1002A0000E94B0038823D9F1012F01C00D2FD093F4
:1002B0009F00D0939E002FEF83ED90E3215080406C
:1002C0009040E1F700C000000130B9F280919F003A
:1002D000813009F0FECE80919E00882309F4B3CFCF
:1002E000F8CE10929F0010929E00F3CE65E082E05F
:1002F0000E94B0038111BACFC0CF2FEF83ED90E3FE
:10030000215080409040E1F700C000000D2FDECF6B
:1003100065E082E00E94B0038111C8CFEECF2FEFDD
:1003200083ED90E3215080409040E1F700C0000051
:10033000A4CF1F920F920FB60F9211248F93109299
:100340009F0081E080939E008F910F900FBE0F90D1
:100350001F9018951F920F920FB60F9211248F9332
:1003600081E080939F0010929E008F910F900FBEAE
:100370000F901F9018951F920F920FB60F92112495
:1003800010929F0010929E000F900FBE0F901F9032
:100390001895CF93C82F40E061E082E00E943F03B0
:1003A00040E062E082E00E943F0340E063E082E0E0
:1003B0000E943F038C2F807F8BBB41E063E082E093
:1003C0000E943F038FE99FE00197F1F700C0000012
:1003D00040E063E082E00E943F0320E1C29FC00151
:1003E00011248BBB41E063E082E00E943F038FE970
:1003F0009FE00197F1F700C0000040E063E082E079
:100400000E943F038FE99FE00197F1F700C00000D1
:10041000CF91089541E064E080E00E94CE0241E087
:1004200065E080E00E94CE0241E066E080E00E944C
:10043000CE0241E067E080E00E94CE0241E061E050
:1004400082E00E94CE0241E062E082E00E94CE02A1
:1004500041E063E082E00E94CE0283E30E94C90192
:1004600082E30E94C90188E20E94C90181E00E94E2
:10047000C90182E00E94C90186E00E94C9018CE0A6
:100480000E94C9018FE39FE10197F1F700C00000CE
:10049000089581E00E94C9010895CF93C82F41E0DB
:1004A00061E082E00E943F0340E063E082E00E945E
:1004B0003F0340E062E082E00E943F038C2F807F98
:1004C0008BBB41E063E082E00E943F038FE99FE045
:1004D0000197F1F700C0000040E063E082E00E9475
:1004E0003F0320E1C29FC00111248BBB41E063E0C8
:1004F00082E00E943F038FE99FE00197F1F700C07F
:10050000000040E063E082E00E943F038FE891E05A
:100510000197F1F700C00000CF910895CF93DF93CA
:10052000EC018881882331F021960E944D02899147
:100530008111FBCFDF91CF910895CF93DF93CDB79A
:10054000DEB72A970FB6F894DEBF0FBECDBF2AE004
:10055000AE014F5F5F4F0E944804CE0101960E949A
:100560008E022A960FB6F894DEBF0FBECDBFDF9184
:10057000CF910895882319F0813031F00AC080E8C6
:10058000860F0E94C901089580EC860F0E94C90160
:1005900008958CE890E00E948E020895442319F09B
:1005A0004130C9F10895813091F028F08230D9F0BE
:1005B000833029F108952AB381E090E002C0880FCA
:1005C000991F6A95E2F7809582238ABB089527B325
:1005D00081E090E002C0880F991F6A95E2F780954C
:1005E000822387BB089524B381E090E002C0880F86
:1005F000991F6A95E2F78095822384BB089521B301
:1006000081E090E002C0880F991F6A95E2F780951B
:10061000822381BB0895813089F028F08230C9F0AF
:10062000833011F108952AB381E090E002C0880F71
:10063000991F6A95E2F7822B8ABB089527B381E060
:1006400090E002C0880F991F6A95E2F7822B87BB62
:10065000089524B381E090E002C0880F991F6A9545
:10066000E2F7822B84BB089521B381E090E002C0C1
:10067000880F991F6A95E2F7822B81BB0895442366
:1006800019F04130C9F10895813091F028F082309D
:10069000D9F0833029F108952BB381E090E002C0B6
:1006A000880F991F6A95E2F7809582238BBB089586
:1006B00028B381E090E002C0880F991F6A95E2F7A5
:1006C0008095822388BB089525B381E090E002C025
:1006D000880F991F6A95E2F78095822385BB08955C
:1006E00022B381E090E002C0880F991F6A95E2F77B
:1006F0008095822382BB0895813089F028F0823072
:10070000C9F0833011F108952BB381E090E002C06D
:10071000880F991F6A95E2F7822B8BBB089528B347
:1007200081E090E002C0880F991F6A95E2F7822B62
:1007300088BB089525B381E090E002C0880F991F1F
:100740006A95E2F7822B85BB089522B381E090E0A1
:1007500002C0880F991F6A95E2F7822B82BB089529
:10076000813079F028F08230A9F08330E1F024C0A4
:1007700089B390E002C0959587956A95E2F78170FC
:10078000089586B390E002C0959587956A95E2F743
:100790008170089583B390E002C0959587956A951E
:1007A000E2F78170089580B390E002C09595879537
:1007B0006A95E2F78170089580E00895F894813099
:1007C00069F120F0823009F451C060C08E988BB777
:1007D00080648BBF613069F028F0623089F063304B
:1007E000B1F054C085B78D7F85BF85B78E7F85BF3B
:1007F0004DC085B78D7F85BF85B7816085BF46C0F9
:1008000085B7826085BF85B78E7F85BF3FC085B7BE
:10081000826085BF85B7816085BF38C08F988BB7F0
:1008200080688BBF613069F028F0623089F06330F6
:10083000B1F02CC085B7877F85BF85B78B7F85BF1B
:1008400025C085B7877F85BF85B7846085BF1EC0FB
:1008500085B7886085BF85B78B7F85BF17C085B793
:10086000886085BF85B7846085BF10C08D988BB7C1
:1008700080628BBF623019F0633029F007C084B703
:100880008F7B84BF03C084B7806484BF789408954D
:10089000BB272A3051F4992342F4BDE2909580950C
:1008A000709561957F4F8F4F9F4F0C945804BB27D5
:1008B000FA01A62F6217710581059105330B30FBF4
:1008C00066F0AA27660F771F881F991FAA1FA21715
:1008D00010F0A21B63953850A9F7A05DAA3308F069
:1008E000A95DA19336F7B111B1931082CA010C949E
:1008F0007904DC01FC01672F71917723E1F73297CE
:1009000004C07C916D9370836291AE17BF07C8F3EA
:060910000895F894FFCFEA
:10091600486F6D652053637265656E003129544DCD
:1009260052003229535700544D5220536372656565
:100936006E0053572053637265656E00496E76618B
:0E0946006C696420456E7472792E2E2E0000AE
:00000001FF
