:100000000C9439000C944E000C944E000C944E004D
:100010000C944E000C944E000C944E000C944E0028
:100020000C944E000C944E000C944E000C944E0018
:100030000C944E000C944E000C944E000C944E0008
:100040000C944E000C944E000C944E000C944E00F8
:100050000C944E008F019201950198019B019E0125
:10006000A101B101B401B701BA01BD01C001C301D1
:10007000C60111241FBECFE5D8E0DEBFCDBF10E022
:10008000A0E6B0E0E8EFF5E002C005900D92AE37D3
:10009000B107D9F70E9450000C94FA020C940000AA
:1000A00066E081E00E9473010E94B30060E080E09E
:1000B0000E945F0180E690E00E9433018FE39CE99B
:1000C0000197F1F700C0000081E00E94A401EC015B
:1000D00060E081E00E945F01BE0180E090E00E944C
:1000E0004201ECCFCF93C82F40E061E081E00E9455
:1000F000420240E062E081E00E94420240E063E0B0
:1001000081E00E9442028C2F807F8BBB41E063E044
:1001100081E00E9442028FE99FE00197F1F700C061
:10012000000040E063E081E00E94420220E1C29FC3
:10013000C00111248BBB41E063E081E00E944202D8
:100140008FE99FE00197F1F700C0000040E063E015
:1001500081E00E9442028FE99FE00197F1F700C021
:100160000000CF91089541E064E080E00E94D10159
:1001700041E065E080E00E94D10141E066E080E07E
:100180000E94D10141E067E080E00E94D10141E09E
:1001900061E081E00E94D10141E062E081E00E94E3
:1001A000D10141E063E081E00E94D10183E30E943C
:1001B000720082E30E94720088E20E94720081E075
:1001C0000E94720082E00E94720086E00E9472002B
:1001D0008CE00E9472008FE39FE10197F1F700C06D
:1001E00000000895CF93C82F41E061E081E00E94B4
:1001F000420240E063E081E00E94420240E062E0AF
:1002000081E00E9442028C2F807F8BBB41E063E043
:1002100081E00E9442028FE99FE00197F1F700C060
:10022000000040E063E081E00E94420220E1C29FC2
:10023000C00111248BBB41E063E081E00E944202D7
:100240008FE99FE00197F1F700C0000040E063E014
:1002500081E00E9442028FE891E00197F1F700C02F
:100260000000CF910895CF93DF93EC01888188231C
:1002700031F021960E94F20089918111FBCFDF912C
:10028000CF910895CF93DF93CDB7DEB72A970FB6FE
:10029000F894DEBF0FBECDBF2AE0AE014F5F5F4FC7
:1002A0000E94B902CE0101960E9433012A960FB630
:1002B000F894DEBF0FBECDBFDF91CF9108958823A4
:1002C00019F0813031F00AC080E8860F0E94720078
:1002D000089580EC860F0E94720008958CE690E0ED
:1002E0000E9433010895813041F028F0823041F0BE
:1002F000833049F00AC017B808C080E487B905C048
:1003000080E887B902C080E987B9862F90E08730FE
:100310009105C8F4FC01E65DFF4F0C94B30281EA3D
:1003200086B9089582EA86B9089583EA86B9089560
:1003300084EA86B9089585EA86B9089586EA86B979
:10034000089587EA86B90895E82F80EF87B98E2F40
:1003500090E088309105E8F4FC01EF5CFF4F0C94CD
:10036000B30280E487B917C081E487B914C082E47E
:1003700087B911C083E487B90EC084E487B90BC084
:1003800085E487B908C086E487B905C087E487B9E2
:1003900002C080E487B9369A349BFECF84B195B110
:1003A0000895442319F04130C9F10895813091F046
:1003B00028F08230D9F0833029F108952AB381E002
:1003C00090E002C0880F991F6A95E2F7809582231A
:1003D0008ABB089527B381E090E002C0880F991F7F
:1003E0006A95E2F78095822387BB089524B381E064
:1003F00090E002C0880F991F6A95E2F780958223EA
:1004000084BB089521B381E090E002C0880F991F5A
:100410006A95E2F78095822381BB0895813089F047
:1004200028F08230C9F0833011F108952AB381E0B9
:1004300090E002C0880F991F6A95E2F7822B8ABB71
:10044000089527B381E090E002C0880F991F6A9554
:10045000E2F7822B87BB089524B381E090E002C0CD
:10046000880F991F6A95E2F7822B84BB089521B308
:1004700081E090E002C0880F991F6A95E2F7822B15
:1004800081BB0895442319F04130C9F108958130AA
:1004900091F028F08230D9F0833029F108952BB300
:1004A00081E090E002C0880F991F6A95E2F780957D
:1004B00082238BBB089528B381E090E002C0880FAF
:1004C000991F6A95E2F78095822388BB089525B32A
:1004D00081E090E002C0880F991F6A95E2F780954D
:1004E000822385BB089522B381E090E002C0880F8B
:1004F000991F6A95E2F78095822382BB0895813027
:1005000089F028F08230C9F0833011F108952BB3BF
:1005100081E090E002C0880F991F6A95E2F7822B74
:100520008BBB089528B381E090E002C0880F991F2B
:100530006A95E2F7822B88BB089525B381E090E0AD
:1005400002C0880F991F6A95E2F7822B85BB089538
:1005500022B381E090E002C0880F991F6A95E2F70C
:10056000822B82BB0895EE0FFF1F0590F491E02DC2
:100570000994BB272A3051F4992342F4BDE29095A7
:100580008095709561957F4F8F4F9F4F0C94C90256
:10059000BB27FA01A62F6217710581059105330B60
:1005A00030FB66F0AA27660F771F881F991FAA1FC6
:1005B000A21710F0A21B63953850A9F7A05DAA33CB
:1005C00008F0A95DA19336F7B111B1931082CA0169
:1005D0000C94EA02DC01FC01672F71917723E1F7AB
:1005E000329704C07C916D9370836291AE17BF0700
:0805F000C8F30895F894FFCF51
:1005F800504F542056616C7565203A00496E7661FB
:0E0608006C696420456E7472792E2E2E0000EF
:00000001FF
